{
  "_format": "hh-sol-artifact-1",
  "contractName": "BAPSaleContract",
  "sourceName": "contracts/BAPSaleContract.sol",
  "abi": [
    {
      "inputs": [
        {
          "internalType": "address",
          "name": "_BAP",
          "type": "address"
        },
        {
          "internalType": "address",
          "name": "_BAP_OWNER",
          "type": "address"
        }
      ],
      "stateMutability": "nonpayable",
      "type": "constructor"
    },
    {
      "anonymous": false,
      "inputs": [
        {
          "indexed": true,
          "internalType": "address",
          "name": "previousOwner",
          "type": "address"
        },
        {
          "indexed": true,
          "internalType": "address",
          "name": "newOwner",
          "type": "address"
        }
      ],
      "name": "OwnershipTransferred",
      "type": "event"
    },
    {
      "anonymous": false,
      "inputs": [
        {
          "indexed": false,
          "internalType": "uint256",
          "name": "price",
          "type": "uint256"
        }
      ],
      "name": "PriceChanged",
      "type": "event"
    },
    {
      "anonymous": false,
      "inputs": [
        {
          "indexed": false,
          "internalType": "address",
          "name": "receiver",
          "type": "address"
        },
        {
          "indexed": false,
          "internalType": "uint256",
          "name": "amount",
          "type": "uint256"
        }
      ],
      "name": "Purchased",
      "type": "event"
    },
    {
      "inputs": [],
      "name": "bapPrice",
      "outputs": [
        {
          "internalType": "uint256",
          "name": "",
          "type": "uint256"
        }
      ],
      "stateMutability": "view",
      "type": "function"
    },
    {
      "inputs": [
        {
          "internalType": "uint256",
          "name": "quantity",
          "type": "uint256"
        },
        {
          "internalType": "address",
          "name": "token",
          "type": "address"
        },
        {
          "internalType": "uint256",
          "name": "amount",
          "type": "uint256"
        }
      ],
      "name": "buy",
      "outputs": [],
      "stateMutability": "payable",
      "type": "function"
    },
    {
      "inputs": [
        {
          "internalType": "address",
          "name": "feeder",
          "type": "address"
        }
      ],
      "name": "getLatestPrice",
      "outputs": [
        {
          "internalType": "int256",
          "name": "",
          "type": "int256"
        }
      ],
      "stateMutability": "view",
      "type": "function"
    },
    {
      "inputs": [],
      "name": "owner",
      "outputs": [
        {
          "internalType": "address",
          "name": "",
          "type": "address"
        }
      ],
      "stateMutability": "view",
      "type": "function"
    },
    {
      "inputs": [],
      "name": "renounceOwnership",
      "outputs": [],
      "stateMutability": "nonpayable",
      "type": "function"
    },
    {
      "inputs": [
        {
          "internalType": "uint256",
          "name": "price",
          "type": "uint256"
        }
      ],
      "name": "setBapPrice",
      "outputs": [],
      "stateMutability": "nonpayable",
      "type": "function"
    },
    {
      "inputs": [
        {
          "internalType": "address",
          "name": "newOwner",
          "type": "address"
        }
      ],
      "name": "transferOwnership",
      "outputs": [],
      "stateMutability": "nonpayable",
      "type": "function"
    },
    {
      "inputs": [
        {
          "internalType": "address",
          "name": "token",
          "type": "address"
        },
        {
          "internalType": "uint256",
          "name": "amount",
          "type": "uint256"
        }
      ],
      "name": "withraw",
      "outputs": [],
      "stateMutability": "payable",
      "type": "function"
    }
  ],
  "bytecode": "0x60c06040523480156200001157600080fd5b506040516200195c3803806200195c8339818101604052810190620000379190620002f2565b620000576200004b6200020f60201b60201c565b6200021760201b60201c565b8173ffffffffffffffffffffffffffffffffffffffff1660808173ffffffffffffffffffffffffffffffffffffffff1660601b815250508073ffffffffffffffffffffffffffffffffffffffff1660a08173ffffffffffffffffffffffffffffffffffffffff1660601b8152505062a7d8c0600181905550735f4ec3df9cbd43714fe2740f5e3616155c5b8419600260008073ffffffffffffffffffffffffffffffffffffffff1673ffffffffffffffffffffffffffffffffffffffff16815260200190815260200160002060006101000a81548173ffffffffffffffffffffffffffffffffffffffff021916908373ffffffffffffffffffffffffffffffffffffffff160217905550733e7d1eab13ad0104d2750b8863b489d65364e32d6002600073dac17f958d2ee523a2206206994597c13d831ec773ffffffffffffffffffffffffffffffffffffffff1673ffffffffffffffffffffffffffffffffffffffff16815260200190815260200160002060006101000a81548173ffffffffffffffffffffffffffffffffffffffff021916908373ffffffffffffffffffffffffffffffffffffffff160217905550505062000381565b600033905090565b60008060009054906101000a900473ffffffffffffffffffffffffffffffffffffffff169050816000806101000a81548173ffffffffffffffffffffffffffffffffffffffff021916908373ffffffffffffffffffffffffffffffffffffffff1602179055508173ffffffffffffffffffffffffffffffffffffffff168173ffffffffffffffffffffffffffffffffffffffff167f8be0079c531659141344cd1fd0a4f28419497f9722a3daafe3b4186f6b6457e060405160405180910390a35050565b600081519050620002ec8162000367565b92915050565b600080604083850312156200030657600080fd5b60006200031685828601620002db565b92505060206200032985828601620002db565b9150509250929050565b6000620003408262000347565b9050919050565b600073ffffffffffffffffffffffffffffffffffffffff82169050919050565b620003728162000333565b81146200037e57600080fd5b50565b60805160601c60a05160601c611593620003c96000396000818161029b0152818161069d01528181610a9c0152610b2401526000818161025f015261066101526115936000f3fe60806040526004361061007b5760003560e01c80637a348bea1161004e5780637a348bea1461011b5780638da5cb5b14610144578063e1af091e1461016f578063f2fde38b1461018b5761007b565b80630eefbf8e1461008057806316345f18146100ab5780632afaca20146100e8578063715018a614610104575b600080fd5b34801561008c57600080fd5b506100956101b4565b6040516100a291906111f7565b60405180910390f35b3480156100b757600080fd5b506100d260048036038101906100cd9190610dfc565b6101be565b6040516100df919061111c565b60405180910390f35b61010260048036038101906100fd9190610edc565b61025c565b005b34801561011057600080fd5b5061011961076f565b005b34801561012757600080fd5b50610142600480360381019061013d9190610e8a565b6107f7565b005b34801561015057600080fd5b506101596108b4565b60405161016691906110a1565b60405180910390f35b61018960048036038101906101849190610e25565b6108dd565b005b34801561019757600080fd5b506101b260048036038101906101ad9190610dfc565b610bba565b005b6000600154905090565b6000806000806000808673ffffffffffffffffffffffffffffffffffffffff1663feaf968c6040518163ffffffff1660e01b815260040160a06040518083038186803b15801561020d57600080fd5b505afa158015610221573d6000803e3d6000fd5b505050506040513d601f19601f820116820180604052508101906102459190610f2b565b945094509450945094508395505050505050919050565b827f000000000000000000000000000000000000000000000000000000000000000073ffffffffffffffffffffffffffffffffffffffff166370a082317f00000000000000000000000000000000000000000000000000000000000000006040518263ffffffff1660e01b81526004016102d691906110a1565b60206040518083038186803b1580156102ee57600080fd5b505afa158015610302573d6000803e3d6000fd5b505050506040513d601f19601f820116820180604052508101906103269190610eb3565b11610366576040517f08c379a000000000000000000000000000000000000000000000000000000000815260040161035d90611197565b60405180910390fd5b60008311806103ad5750600073ffffffffffffffffffffffffffffffffffffffff168273ffffffffffffffffffffffffffffffffffffffff161480156103ac5750600034115b5b806103b85750600081115b6103f7576040517f08c379a00000000000000000000000000000000000000000000000000000000081526004016103ee90611177565b60405180910390fd5b600073ffffffffffffffffffffffffffffffffffffffff168273ffffffffffffffffffffffffffffffffffffffff161415610430573490505b6000600154846104409190611254565b826104a9600260008773ffffffffffffffffffffffffffffffffffffffff1673ffffffffffffffffffffffffffffffffffffffff16815260200190815260200160002060009054906101000a900473ffffffffffffffffffffffffffffffffffffffff166101be565b6104b39190611254565b6104bd9190611223565b9050808211610501576040517f08c379a00000000000000000000000000000000000000000000000000000000081526004016104f8906111b7565b60405180910390fd5b600073ffffffffffffffffffffffffffffffffffffffff168373ffffffffffffffffffffffffffffffffffffffff16146105c6578273ffffffffffffffffffffffffffffffffffffffff166323b872dd3330846040518463ffffffff1660e01b8152600401610572939291906110bc565b602060405180830381600087803b15801561058c57600080fd5b505af11580156105a0573d6000803e3d6000fd5b505050506040513d601f19601f820116820180604052508101906105c49190610e61565b505b600081836105d491906112ae565b9050600073ffffffffffffffffffffffffffffffffffffffff168473ffffffffffffffffffffffffffffffffffffffff161480156106125750600081115b1561065f573373ffffffffffffffffffffffffffffffffffffffff166108fc829081150290604051600060405180830381858888f1935050505015801561065d573d6000803e3d6000fd5b505b7f000000000000000000000000000000000000000000000000000000000000000073ffffffffffffffffffffffffffffffffffffffff166323b872dd7f000000000000000000000000000000000000000000000000000000000000000033886040518463ffffffff1660e01b81526004016106dc939291906110bc565b602060405180830381600087803b1580156106f657600080fd5b505af115801561070a573d6000803e3d6000fd5b505050506040513d601f19601f8201168201806040525081019061072e9190610e61565b507fa512fb2532ca8587f236380171326ebb69670e86a2ba0c4412a3fcca4c3ada9b33866040516107609291906110f3565b60405180910390a15050505050565b610777610cb2565b73ffffffffffffffffffffffffffffffffffffffff166107956108b4565b73ffffffffffffffffffffffffffffffffffffffff16146107eb576040517f08c379a00000000000000000000000000000000000000000000000000000000081526004016107e290611157565b60405180910390fd5b6107f56000610cba565b565b6107ff610cb2565b73ffffffffffffffffffffffffffffffffffffffff1661081d6108b4565b73ffffffffffffffffffffffffffffffffffffffff1614610873576040517f08c379a000000000000000000000000000000000000000000000000000000000815260040161086a90611157565b60405180910390fd5b806001819055507fa6dc15bdb68da224c66db4b3838d9a2b205138e8cff6774e57d0af91e196d622816040516108a991906111f7565b60405180910390a150565b60008060009054906101000a900473ffffffffffffffffffffffffffffffffffffffff16905090565b6108e5610cb2565b73ffffffffffffffffffffffffffffffffffffffff166109036108b4565b73ffffffffffffffffffffffffffffffffffffffff1614610959576040517f08c379a000000000000000000000000000000000000000000000000000000000815260040161095090611157565b60405180910390fd5b60008073ffffffffffffffffffffffffffffffffffffffff168373ffffffffffffffffffffffffffffffffffffffff16141561099757479050610a23565b8273ffffffffffffffffffffffffffffffffffffffff166370a08231306040518263ffffffff1660e01b81526004016109d091906110a1565b60206040518083038186803b1580156109e857600080fd5b505afa1580156109fc573d6000803e3d6000fd5b505050506040513d601f19601f82011682018060405250810190610a209190610eb3565b90505b818111610a65576040517f08c379a0000000000000000000000000000000000000000000000000000000008152600401610a5c906111d7565b60405180910390fd5b600073ffffffffffffffffffffffffffffffffffffffff168373ffffffffffffffffffffffffffffffffffffffff161415610b06577f000000000000000000000000000000000000000000000000000000000000000073ffffffffffffffffffffffffffffffffffffffff166108fc839081150290604051600060405180830381858888f19350505050158015610b00573d6000803e3d6000fd5b50610bb5565b8273ffffffffffffffffffffffffffffffffffffffff1663a9059cbb7f0000000000000000000000000000000000000000000000000000000000000000846040518363ffffffff1660e01b8152600401610b619291906110f3565b602060405180830381600087803b158015610b7b57600080fd5b505af1158015610b8f573d6000803e3d6000fd5b505050506040513d601f19601f82011682018060405250810190610bb39190610e61565b505b505050565b610bc2610cb2565b73ffffffffffffffffffffffffffffffffffffffff16610be06108b4565b73ffffffffffffffffffffffffffffffffffffffff1614610c36576040517f08c379a0000000000000000000000000000000000000000000000000000000008152600401610c2d90611157565b60405180910390fd5b600073ffffffffffffffffffffffffffffffffffffffff168173ffffffffffffffffffffffffffffffffffffffff161415610ca6576040517f08c379a0000000000000000000000000000000000000000000000000000000008152600401610c9d90611137565b60405180910390fd5b610caf81610cba565b50565b600033905090565b60008060009054906101000a900473ffffffffffffffffffffffffffffffffffffffff169050816000806101000a81548173ffffffffffffffffffffffffffffffffffffffff021916908373ffffffffffffffffffffffffffffffffffffffff1602179055508173ffffffffffffffffffffffffffffffffffffffff168173ffffffffffffffffffffffffffffffffffffffff167f8be0079c531659141344cd1fd0a4f28419497f9722a3daafe3b4186f6b6457e060405160405180910390a35050565b600081359050610d8d816114ea565b92915050565b600081519050610da281611501565b92915050565b600081519050610db781611518565b92915050565b600081359050610dcc8161152f565b92915050565b600081519050610de18161152f565b92915050565b600081519050610df681611546565b92915050565b600060208284031215610e0e57600080fd5b6000610e1c84828501610d7e565b91505092915050565b60008060408385031215610e3857600080fd5b6000610e4685828601610d7e565b9250506020610e5785828601610dbd565b9150509250929050565b600060208284031215610e7357600080fd5b6000610e8184828501610d93565b91505092915050565b600060208284031215610e9c57600080fd5b6000610eaa84828501610dbd565b91505092915050565b600060208284031215610ec557600080fd5b6000610ed384828501610dd2565b91505092915050565b600080600060608486031215610ef157600080fd5b6000610eff86828701610dbd565b9350506020610f1086828701610d7e565b9250506040610f2186828701610dbd565b9150509250925092565b600080600080600060a08688031215610f4357600080fd5b6000610f5188828901610de7565b9550506020610f6288828901610da8565b9450506040610f7388828901610dd2565b9350506060610f8488828901610dd2565b9250506080610f9588828901610de7565b9150509295509295909350565b610fab816112e2565b82525050565b610fba81611300565b82525050565b6000610fcd602683611212565b9150610fd8826113a8565b604082019050919050565b6000610ff0602083611212565b9150610ffb826113f7565b602082019050919050565b6000611013601983611212565b915061101e82611420565b602082019050919050565b6000611036602083611212565b915061104182611449565b602082019050919050565b6000611059602083611212565b915061106482611472565b602082019050919050565b600061107c602383611212565b91506110878261149b565b604082019050919050565b61109b8161132a565b82525050565b60006020820190506110b66000830184610fa2565b92915050565b60006060820190506110d16000830186610fa2565b6110de6020830185610fa2565b6110eb6040830184611092565b949350505050565b60006040820190506111086000830185610fa2565b6111156020830184611092565b9392505050565b60006020820190506111316000830184610fb1565b92915050565b6000602082019050818103600083015261115081610fc0565b9050919050565b6000602082019050818103600083015261117081610fe3565b9050919050565b6000602082019050818103600083015261119081611006565b9050919050565b600060208201905081810360008301526111b081611029565b9050919050565b600060208201905081810360008301526111d08161104c565b9050919050565b600060208201905081810360008301526111f08161106f565b9050919050565b600060208201905061120c6000830184611092565b92915050565b600082825260208201905092915050565b600061122e8261132a565b91506112398361132a565b92508261124957611248611379565b5b828204905092915050565b600061125f8261132a565b915061126a8361132a565b9250817fffffffffffffffffffffffffffffffffffffffffffffffffffffffffffffffff04831182151516156112a3576112a261134a565b5b828202905092915050565b60006112b98261132a565b91506112c48361132a565b9250828210156112d7576112d661134a565b5b828203905092915050565b60006112ed8261130a565b9050919050565b60008115159050919050565b6000819050919050565b600073ffffffffffffffffffffffffffffffffffffffff82169050919050565b6000819050919050565b600069ffffffffffffffffffff82169050919050565b7f4e487b7100000000000000000000000000000000000000000000000000000000600052601160045260246000fd5b7f4e487b7100000000000000000000000000000000000000000000000000000000600052601260045260246000fd5b7f4f776e61626c653a206e6577206f776e657220697320746865207a65726f206160008201527f6464726573730000000000000000000000000000000000000000000000000000602082015250565b7f4f776e61626c653a2063616c6c6572206973206e6f7420746865206f776e6572600082015250565b7f596f7520686176652077726f6e6720706172616d657465727300000000000000600082015250565b7f5265717569726564204241502065786365656473207468652062616c616e6365600082015250565b7f596f7520686176652070616964206c657373207468616e206578706563746564600082015250565b7f526571756972656420616d6f756e742065786365656473207468652062616c6160008201527f6e63650000000000000000000000000000000000000000000000000000000000602082015250565b6114f3816112e2565b81146114fe57600080fd5b50565b61150a816112f4565b811461151557600080fd5b50565b61152181611300565b811461152c57600080fd5b50565b6115388161132a565b811461154357600080fd5b50565b61154f81611334565b811461155a57600080fd5b5056fea2646970667358221220b8277053ee2eed6945cd0a29ad196330c3e19972d7f700e54e0a23351e9d3b4764736f6c63430008040033",
  "linkReferences": {},
  "deployedLinkReferences": {}
}