{
  "_format": "hh-sol-artifact-1",
  "contractName": "BAPSaleContract",
  "sourceName": "contracts/BAPSaleContract.sol",
  "abi": [
    {
      "inputs": [
        {
          "internalType": "address",
          "name": "_BAP",
          "type": "address"
        },
        {
          "internalType": "address",
          "name": "_BAP_OWNER",
          "type": "address"
        }
      ],
      "stateMutability": "nonpayable",
      "type": "constructor"
    },
    {
      "anonymous": false,
      "inputs": [
        {
          "indexed": true,
          "internalType": "address",
          "name": "previousOwner",
          "type": "address"
        },
        {
          "indexed": true,
          "internalType": "address",
          "name": "newOwner",
          "type": "address"
        }
      ],
      "name": "OwnershipTransferred",
      "type": "event"
    },
    {
      "anonymous": false,
      "inputs": [
        {
          "indexed": false,
          "internalType": "uint256",
          "name": "price",
          "type": "uint256"
        }
      ],
      "name": "PriceChanged",
      "type": "event"
    },
    {
      "anonymous": false,
      "inputs": [
        {
          "indexed": false,
          "internalType": "address",
          "name": "receiver",
          "type": "address"
        },
        {
          "indexed": false,
          "internalType": "uint256",
          "name": "amount",
          "type": "uint256"
        }
      ],
      "name": "Purchased",
      "type": "event"
    },
    {
      "inputs": [],
      "name": "bapPrice",
      "outputs": [
        {
          "internalType": "uint256",
          "name": "",
          "type": "uint256"
        }
      ],
      "stateMutability": "view",
      "type": "function"
    },
    {
      "inputs": [
        {
          "internalType": "uint256",
          "name": "quantity",
          "type": "uint256"
        },
        {
          "internalType": "address",
          "name": "token",
          "type": "address"
        },
        {
          "internalType": "uint256",
          "name": "amount",
          "type": "uint256"
        }
      ],
      "name": "buy",
      "outputs": [],
      "stateMutability": "payable",
      "type": "function"
    },
    {
      "inputs": [
        {
          "internalType": "address",
          "name": "feeder",
          "type": "address"
        }
      ],
      "name": "getLatestPrice",
      "outputs": [
        {
          "internalType": "int256",
          "name": "",
          "type": "int256"
        }
      ],
      "stateMutability": "view",
      "type": "function"
    },
    {
      "inputs": [],
      "name": "owner",
      "outputs": [
        {
          "internalType": "address",
          "name": "",
          "type": "address"
        }
      ],
      "stateMutability": "view",
      "type": "function"
    },
    {
      "inputs": [],
      "name": "renounceOwnership",
      "outputs": [],
      "stateMutability": "nonpayable",
      "type": "function"
    },
    {
      "inputs": [
        {
          "internalType": "uint256",
          "name": "price",
          "type": "uint256"
        }
      ],
      "name": "setBapPrice",
      "outputs": [],
      "stateMutability": "nonpayable",
      "type": "function"
    },
    {
      "inputs": [
        {
          "internalType": "address",
          "name": "newOwner",
          "type": "address"
        }
      ],
      "name": "transferOwnership",
      "outputs": [],
      "stateMutability": "nonpayable",
      "type": "function"
    },
    {
      "inputs": [
        {
          "internalType": "address",
          "name": "token",
          "type": "address"
        },
        {
          "internalType": "uint256",
          "name": "amount",
          "type": "uint256"
        }
      ],
      "name": "withraw",
      "outputs": [],
      "stateMutability": "payable",
      "type": "function"
    }
  ],
  "bytecode": "0x60c06040523480156200001157600080fd5b5060405162001c8238038062001c82833981810160405281019062000037919062000398565b620000576200004b620002b560201b60201c565b620002bd60201b60201c565b8173ffffffffffffffffffffffffffffffffffffffff1660808173ffffffffffffffffffffffffffffffffffffffff1660601b815250508073ffffffffffffffffffffffffffffffffffffffff1660a08173ffffffffffffffffffffffffffffffffffffffff1660601b8152505062f42400600181905550738a753747a1fa494ec906ce90e9f37563a8af630e600260008073ffffffffffffffffffffffffffffffffffffffff1673ffffffffffffffffffffffffffffffffffffffff16815260200190815260200160002060006101000a81548173ffffffffffffffffffffffffffffffffffffffff021916908373ffffffffffffffffffffffffffffffffffffffff160217905550733e7d1eab13ad0104d2750b8863b489d65364e32d6002600073dac17f958d2ee523a2206206994597c13d831ec773ffffffffffffffffffffffffffffffffffffffff1673ffffffffffffffffffffffffffffffffffffffff16815260200190815260200160002060006101000a81548173ffffffffffffffffffffffffffffffffffffffff021916908373ffffffffffffffffffffffffffffffffffffffff160217905550738fffffd4afb6115b954bd326cbe7b4ba576818f66002600073a0b86991c6218b36c1d19d4a2e9eb0ce3606eb4873ffffffffffffffffffffffffffffffffffffffff1673ffffffffffffffffffffffffffffffffffffffff16815260200190815260200160002060006101000a81548173ffffffffffffffffffffffffffffffffffffffff021916908373ffffffffffffffffffffffffffffffffffffffff160217905550505062000427565b600033905090565b60008060009054906101000a900473ffffffffffffffffffffffffffffffffffffffff169050816000806101000a81548173ffffffffffffffffffffffffffffffffffffffff021916908373ffffffffffffffffffffffffffffffffffffffff1602179055508173ffffffffffffffffffffffffffffffffffffffff168173ffffffffffffffffffffffffffffffffffffffff167f8be0079c531659141344cd1fd0a4f28419497f9722a3daafe3b4186f6b6457e060405160405180910390a35050565b60008151905062000392816200040d565b92915050565b60008060408385031215620003ac57600080fd5b6000620003bc8582860162000381565b9250506020620003cf8582860162000381565b9150509250929050565b6000620003e682620003ed565b9050919050565b600073ffffffffffffffffffffffffffffffffffffffff82169050919050565b6200041881620003d9565b81146200042457600080fd5b50565b60805160601c60a05160601c6118136200046f6000396000818161029b0152818161073b01528181610b3c0152610bc401526000818161025f01526106ff01526118136000f3fe60806040526004361061007b5760003560e01c80637a348bea1161004e5780637a348bea1461011b5780638da5cb5b14610144578063e1af091e1461016f578063f2fde38b1461018b5761007b565b80630eefbf8e1461008057806316345f18146100ab5780632afaca20146100e8578063715018a614610104575b600080fd5b34801561008c57600080fd5b506100956101b4565b6040516100a291906112d5565b60405180910390f35b3480156100b757600080fd5b506100d260048036038101906100cd9190610eb1565b6101be565b6040516100df91906111fa565b60405180910390f35b61010260048036038101906100fd9190610f91565b61025c565b005b34801561011057600080fd5b5061011961080e565b005b34801561012757600080fd5b50610142600480360381019061013d9190610f3f565b610896565b005b34801561015057600080fd5b50610159610953565b604051610166919061117f565b60405180910390f35b61018960048036038101906101849190610eda565b61097c565b005b34801561019757600080fd5b506101b260048036038101906101ad9190610eb1565b610c5a565b005b6000600154905090565b6000806000806000808673ffffffffffffffffffffffffffffffffffffffff1663feaf968c6040518163ffffffff1660e01b815260040160a06040518083038186803b15801561020d57600080fd5b505afa158015610221573d6000803e3d6000fd5b505050506040513d601f19601f820116820180604052508101906102459190610fe0565b945094509450945094508395505050505050919050565b827f000000000000000000000000000000000000000000000000000000000000000073ffffffffffffffffffffffffffffffffffffffff166370a082317f00000000000000000000000000000000000000000000000000000000000000006040518263ffffffff1660e01b81526004016102d6919061117f565b60206040518083038186803b1580156102ee57600080fd5b505afa158015610302573d6000803e3d6000fd5b505050506040513d601f19601f820116820180604052508101906103269190610f68565b11610366576040517f08c379a000000000000000000000000000000000000000000000000000000000815260040161035d90611275565b60405180910390fd5b60008311806103ad5750600073ffffffffffffffffffffffffffffffffffffffff168273ffffffffffffffffffffffffffffffffffffffff161480156103ac5750600034115b5b806103b85750600081115b6103f7576040517f08c379a00000000000000000000000000000000000000000000000000000000081526004016103ee90611255565b60405180910390fd5b60008073ffffffffffffffffffffffffffffffffffffffff168373ffffffffffffffffffffffffffffffffffffffff16141561044057349150670de0b6b3a764000090506104cd565b8273ffffffffffffffffffffffffffffffffffffffff1663313ce5676040518163ffffffff1660e01b815260040160206040518083038186803b15801561048657600080fd5b505afa15801561049a573d6000803e3d6000fd5b505050506040513d601f19601f820116820180604052508101906104be9190611057565b600a6104ca9190611385565b90505b6000610537600260008673ffffffffffffffffffffffffffffffffffffffff1673ffffffffffffffffffffffffffffffffffffffff16815260200190815260200160002060009054906101000a900473ffffffffffffffffffffffffffffffffffffffff166101be565b826001548761054691906114a3565b61055091906114a3565b61055a9190611301565b90508083101561059f576040517f08c379a000000000000000000000000000000000000000000000000000000000815260040161059690611295565b60405180910390fd5b600073ffffffffffffffffffffffffffffffffffffffff168473ffffffffffffffffffffffffffffffffffffffff1614610664578373ffffffffffffffffffffffffffffffffffffffff166323b872dd3330846040518463ffffffff1660e01b81526004016106109392919061119a565b602060405180830381600087803b15801561062a57600080fd5b505af115801561063e573d6000803e3d6000fd5b505050506040513d601f19601f820116820180604052508101906106629190610f16565b505b6000818461067291906114fd565b9050600073ffffffffffffffffffffffffffffffffffffffff168573ffffffffffffffffffffffffffffffffffffffff161480156106b05750600081115b156106fd573373ffffffffffffffffffffffffffffffffffffffff166108fc829081150290604051600060405180830381858888f193505050501580156106fb573d6000803e3d6000fd5b505b7f000000000000000000000000000000000000000000000000000000000000000073ffffffffffffffffffffffffffffffffffffffff166323b872dd7f000000000000000000000000000000000000000000000000000000000000000033896040518463ffffffff1660e01b815260040161077a9392919061119a565b602060405180830381600087803b15801561079457600080fd5b505af11580156107a8573d6000803e3d6000fd5b505050506040513d601f19601f820116820180604052508101906107cc9190610f16565b507fa512fb2532ca8587f236380171326ebb69670e86a2ba0c4412a3fcca4c3ada9b33876040516107fe9291906111d1565b60405180910390a1505050505050565b610816610d52565b73ffffffffffffffffffffffffffffffffffffffff16610834610953565b73ffffffffffffffffffffffffffffffffffffffff161461088a576040517f08c379a000000000000000000000000000000000000000000000000000000000815260040161088190611235565b60405180910390fd5b6108946000610d5a565b565b61089e610d52565b73ffffffffffffffffffffffffffffffffffffffff166108bc610953565b73ffffffffffffffffffffffffffffffffffffffff1614610912576040517f08c379a000000000000000000000000000000000000000000000000000000000815260040161090990611235565b60405180910390fd5b806001819055507fa6dc15bdb68da224c66db4b3838d9a2b205138e8cff6774e57d0af91e196d6228160405161094891906112d5565b60405180910390a150565b60008060009054906101000a900473ffffffffffffffffffffffffffffffffffffffff16905090565b610984610d52565b73ffffffffffffffffffffffffffffffffffffffff166109a2610953565b73ffffffffffffffffffffffffffffffffffffffff16146109f8576040517f08c379a00000000000000000000000000000000000000000000000000000000081526004016109ef90611235565b60405180910390fd5b60008073ffffffffffffffffffffffffffffffffffffffff168373ffffffffffffffffffffffffffffffffffffffff161415610a3657479050610ac2565b8273ffffffffffffffffffffffffffffffffffffffff166370a08231306040518263ffffffff1660e01b8152600401610a6f919061117f565b60206040518083038186803b158015610a8757600080fd5b505afa158015610a9b573d6000803e3d6000fd5b505050506040513d601f19601f82011682018060405250810190610abf9190610f68565b90505b81811015610b05576040517f08c379a0000000000000000000000000000000000000000000000000000000008152600401610afc906112b5565b60405180910390fd5b600073ffffffffffffffffffffffffffffffffffffffff168373ffffffffffffffffffffffffffffffffffffffff161415610ba6577f000000000000000000000000000000000000000000000000000000000000000073ffffffffffffffffffffffffffffffffffffffff166108fc839081150290604051600060405180830381858888f19350505050158015610ba0573d6000803e3d6000fd5b50610c55565b8273ffffffffffffffffffffffffffffffffffffffff1663a9059cbb7f0000000000000000000000000000000000000000000000000000000000000000846040518363ffffffff1660e01b8152600401610c019291906111d1565b602060405180830381600087803b158015610c1b57600080fd5b505af1158015610c2f573d6000803e3d6000fd5b505050506040513d601f19601f82011682018060405250810190610c539190610f16565b505b505050565b610c62610d52565b73ffffffffffffffffffffffffffffffffffffffff16610c80610953565b73ffffffffffffffffffffffffffffffffffffffff1614610cd6576040517f08c379a0000000000000000000000000000000000000000000000000000000008152600401610ccd90611235565b60405180910390fd5b600073ffffffffffffffffffffffffffffffffffffffff168173ffffffffffffffffffffffffffffffffffffffff161415610d46576040517f08c379a0000000000000000000000000000000000000000000000000000000008152600401610d3d90611215565b60405180910390fd5b610d4f81610d5a565b50565b600033905090565b60008060009054906101000a900473ffffffffffffffffffffffffffffffffffffffff169050816000806101000a81548173ffffffffffffffffffffffffffffffffffffffff021916908373ffffffffffffffffffffffffffffffffffffffff1602179055508173ffffffffffffffffffffffffffffffffffffffff168173ffffffffffffffffffffffffffffffffffffffff167f8be0079c531659141344cd1fd0a4f28419497f9722a3daafe3b4186f6b6457e060405160405180910390a35050565b600081359050610e2d81611753565b92915050565b600081519050610e428161176a565b92915050565b600081519050610e5781611781565b92915050565b600081359050610e6c81611798565b92915050565b600081519050610e8181611798565b92915050565b600081519050610e96816117c6565b92915050565b600081519050610eab816117af565b92915050565b600060208284031215610ec357600080fd5b6000610ed184828501610e1e565b91505092915050565b60008060408385031215610eed57600080fd5b6000610efb85828601610e1e565b9250506020610f0c85828601610e5d565b9150509250929050565b600060208284031215610f2857600080fd5b6000610f3684828501610e33565b91505092915050565b600060208284031215610f5157600080fd5b6000610f5f84828501610e5d565b91505092915050565b600060208284031215610f7a57600080fd5b6000610f8884828501610e72565b91505092915050565b600080600060608486031215610fa657600080fd5b6000610fb486828701610e5d565b9350506020610fc586828701610e1e565b9250506040610fd686828701610e5d565b9150509250925092565b600080600080600060a08688031215610ff857600080fd5b600061100688828901610e87565b955050602061101788828901610e48565b945050604061102888828901610e72565b935050606061103988828901610e72565b925050608061104a88828901610e87565b9150509295509295909350565b60006020828403121561106957600080fd5b600061107784828501610e9c565b91505092915050565b61108981611531565b82525050565b6110988161154f565b82525050565b60006110ab6026836112f0565b91506110b682611611565b604082019050919050565b60006110ce6020836112f0565b91506110d982611660565b602082019050919050565b60006110f16019836112f0565b91506110fc82611689565b602082019050919050565b60006111146020836112f0565b915061111f826116b2565b602082019050919050565b60006111376020836112f0565b9150611142826116db565b602082019050919050565b600061115a6023836112f0565b915061116582611704565b604082019050919050565b61117981611579565b82525050565b60006020820190506111946000830184611080565b92915050565b60006060820190506111af6000830186611080565b6111bc6020830185611080565b6111c96040830184611170565b949350505050565b60006040820190506111e66000830185611080565b6111f36020830184611170565b9392505050565b600060208201905061120f600083018461108f565b92915050565b6000602082019050818103600083015261122e8161109e565b9050919050565b6000602082019050818103600083015261124e816110c1565b9050919050565b6000602082019050818103600083015261126e816110e4565b9050919050565b6000602082019050818103600083015261128e81611107565b9050919050565b600060208201905081810360008301526112ae8161112a565b9050919050565b600060208201905081810360008301526112ce8161114d565b9050919050565b60006020820190506112ea6000830184611170565b92915050565b600082825260208201905092915050565b600061130c82611579565b915061131783611579565b925082611327576113266115d5565b5b828204905092915050565b6000808291508390505b600185111561137c57808604811115611358576113576115a6565b5b60018516156113675780820291505b808102905061137585611604565b945061133c565b94509492505050565b600061139082611579565b915061139b83611583565b92506113c87fffffffffffffffffffffffffffffffffffffffffffffffffffffffffffffffff84846113d0565b905092915050565b6000826113e0576001905061149c565b816113ee576000905061149c565b8160018114611404576002811461140e5761143d565b600191505061149c565b60ff8411156114205761141f6115a6565b5b8360020a915084821115611437576114366115a6565b5b5061149c565b5060208310610133831016604e8410600b84101617156114725782820a90508381111561146d5761146c6115a6565b5b61149c565b61147f8484846001611332565b92509050818404811115611496576114956115a6565b5b81810290505b9392505050565b60006114ae82611579565b91506114b983611579565b9250817fffffffffffffffffffffffffffffffffffffffffffffffffffffffffffffffff04831182151516156114f2576114f16115a6565b5b828202905092915050565b600061150882611579565b915061151383611579565b925082821015611526576115256115a6565b5b828203905092915050565b600061153c82611559565b9050919050565b60008115159050919050565b6000819050919050565b600073ffffffffffffffffffffffffffffffffffffffff82169050919050565b6000819050919050565b600060ff82169050919050565b600069ffffffffffffffffffff82169050919050565b7f4e487b7100000000000000000000000000000000000000000000000000000000600052601160045260246000fd5b7f4e487b7100000000000000000000000000000000000000000000000000000000600052601260045260246000fd5b60008160011c9050919050565b7f4f776e61626c653a206e6577206f776e657220697320746865207a65726f206160008201527f6464726573730000000000000000000000000000000000000000000000000000602082015250565b7f4f776e61626c653a2063616c6c6572206973206e6f7420746865206f776e6572600082015250565b7f596f7520686176652077726f6e6720706172616d657465727300000000000000600082015250565b7f5265717569726564204241502065786365656473207468652062616c616e6365600082015250565b7f596f7520686176652070616964206c657373207468616e206578706563746564600082015250565b7f526571756972656420616d6f756e742065786365656473207468652062616c6160008201527f6e63650000000000000000000000000000000000000000000000000000000000602082015250565b61175c81611531565b811461176757600080fd5b50565b61177381611543565b811461177e57600080fd5b50565b61178a8161154f565b811461179557600080fd5b50565b6117a181611579565b81146117ac57600080fd5b50565b6117b881611583565b81146117c357600080fd5b50565b6117cf81611590565b81146117da57600080fd5b5056fea264697066735822122036e35f5ba304bae916828a73066e039565681d64c696e16805e8e3f71144075664736f6c63430008040033",
  "linkReferences": {},
  "deployedLinkReferences": {}
}